{
  "_format": "hh-sol-artifact-1",
  "contractName": "TouristRegistry",
  "sourceName": "contracts/TouristRegistry.sol",
  "abi": [
    {
      "anonymous": false,
      "inputs": [
        {
          "indexed": true,
          "internalType": "bytes32",
          "name": "idHash",
          "type": "bytes32"
        },
        {
          "indexed": false,
          "internalType": "uint64",
          "name": "startDate",
          "type": "uint64"
        },
        {
          "indexed": false,
          "internalType": "uint64",
          "name": "endDate",
          "type": "uint64"
        },
        {
          "indexed": true,
          "internalType": "address",
          "name": "recorder",
          "type": "address"
        }
      ],
      "name": "JourneyRecorded",
      "type": "event"
    },
    {
      "inputs": [
        {
          "internalType": "bytes32",
          "name": "idHash",
          "type": "bytes32"
        },
        {
          "internalType": "uint64",
          "name": "startDate",
          "type": "uint64"
        },
        {
          "internalType": "uint64",
          "name": "endDate",
          "type": "uint64"
        }
      ],
      "name": "recordJourney",
      "outputs": [],
      "stateMutability": "nonpayable",
      "type": "function"
    }
  ],
  "bytecode": "0x608060405234801561001057600080fd5b5061041c806100206000396000f3fe608060405234801561001057600080fd5b506004361061002b5760003560e01c806304782e0c14610030575b600080fd5b61004a60048036038101906100459190610206565b61004c565b005b6000801b8303610091576040517f08c379a0000000000000000000000000000000000000000000000000000000008152600401610088906102b6565b60405180910390fd5b60008267ffffffffffffffff16116100de576040517f08c379a00000000000000000000000000000000000000000000000000000000081526004016100d590610322565b60405180910390fd5b8167ffffffffffffffff168167ffffffffffffffff161015610135576040517f08c379a000000000000000000000000000000000000000000000000000000000815260040161012c9061038e565b60405180910390fd5b3373ffffffffffffffffffffffffffffffffffffffff16837f18269dbf4b185892d04f48f9c40b9f9984ccbbe970ab2559f4d6f453cef60494848460405161017e9291906103bd565b60405180910390a3505050565b600080fd5b6000819050919050565b6101a381610190565b81146101ae57600080fd5b50565b6000813590506101c08161019a565b92915050565b600067ffffffffffffffff82169050919050565b6101e3816101c6565b81146101ee57600080fd5b50565b600081359050610200816101da565b92915050565b60008060006060848603121561021f5761021e61018b565b5b600061022d868287016101b1565b935050602061023e868287016101f1565b925050604061024f868287016101f1565b9150509250925092565b600082825260208201905092915050565b7f6964486173682072657175697265640000000000000000000000000000000000600082015250565b60006102a0600f83610259565b91506102ab8261026a565b602082019050919050565b600060208201905081810360008301526102cf81610293565b9050919050565b7f7374617274446174652072657175697265640000000000000000000000000000600082015250565b600061030c601283610259565b9150610317826102d6565b602082019050919050565b6000602082019050818103600083015261033b816102ff565b9050919050565b7f656e6444617465203e3d20737461727444617465000000000000000000000000600082015250565b6000610378601483610259565b915061038382610342565b602082019050919050565b600060208201905081810360008301526103a78161036b565b9050919050565b6103b7816101c6565b82525050565b60006040820190506103d260008301856103ae565b6103df60208301846103ae565b939250505056fea2646970667358221220c97b4d135e867ac2b05de348ee954b0865bc77149165754d58cd3733633efe8664736f6c63430008140033",
  "linkReferences": {},
  "deployedLinkReferences": {}
}